{
  "_format": "hh-sol-artifact-1",
  "contractName": "TokenA",
  "sourceName": "contracts/TokenA.sol",
  "abi": [
    {
      "inputs": [],
      "stateMutability": "nonpayable",
      "type": "constructor"
    },
    {
      "anonymous": false,
      "inputs": [
        {
          "indexed": true,
          "internalType": "address",
          "name": "owner",
          "type": "address"
        },
        {
          "indexed": true,
          "internalType": "address",
          "name": "spender",
          "type": "address"
        },
        {
          "indexed": false,
          "internalType": "uint256",
          "name": "value",
          "type": "uint256"
        }
      ],
      "name": "Approval",
      "type": "event"
    },
    {
      "anonymous": false,
      "inputs": [
        {
          "indexed": true,
          "internalType": "address",
          "name": "from",
          "type": "address"
        },
        {
          "indexed": true,
          "internalType": "address",
          "name": "to",
          "type": "address"
        },
        {
          "indexed": false,
          "internalType": "uint256",
          "name": "value",
          "type": "uint256"
        }
      ],
      "name": "Transfer",
      "type": "event"
    },
    {
      "inputs": [
        {
          "internalType": "address",
          "name": "owner",
          "type": "address"
        },
        {
          "internalType": "address",
          "name": "spender",
          "type": "address"
        }
      ],
      "name": "allowance",
      "outputs": [
        {
          "internalType": "uint256",
          "name": "",
          "type": "uint256"
        }
      ],
      "stateMutability": "view",
      "type": "function"
    },
    {
      "inputs": [
        {
          "internalType": "address",
          "name": "spender",
          "type": "address"
        },
        {
          "internalType": "uint256",
          "name": "amount",
          "type": "uint256"
        }
      ],
      "name": "approve",
      "outputs": [
        {
          "internalType": "bool",
          "name": "",
          "type": "bool"
        }
      ],
      "stateMutability": "nonpayable",
      "type": "function"
    },
    {
      "inputs": [
        {
          "internalType": "address",
          "name": "account",
          "type": "address"
        }
      ],
      "name": "balanceOf",
      "outputs": [
        {
          "internalType": "uint256",
          "name": "",
          "type": "uint256"
        }
      ],
      "stateMutability": "view",
      "type": "function"
    },
    {
      "inputs": [],
      "name": "decimals",
      "outputs": [
        {
          "internalType": "uint8",
          "name": "",
          "type": "uint8"
        }
      ],
      "stateMutability": "view",
      "type": "function"
    },
    {
      "inputs": [
        {
          "internalType": "address",
          "name": "spender",
          "type": "address"
        },
        {
          "internalType": "uint256",
          "name": "subtractedValue",
          "type": "uint256"
        }
      ],
      "name": "decreaseAllowance",
      "outputs": [
        {
          "internalType": "bool",
          "name": "",
          "type": "bool"
        }
      ],
      "stateMutability": "nonpayable",
      "type": "function"
    },
    {
      "inputs": [
        {
          "internalType": "address",
          "name": "spender",
          "type": "address"
        },
        {
          "internalType": "uint256",
          "name": "addedValue",
          "type": "uint256"
        }
      ],
      "name": "increaseAllowance",
      "outputs": [
        {
          "internalType": "bool",
          "name": "",
          "type": "bool"
        }
      ],
      "stateMutability": "nonpayable",
      "type": "function"
    },
    {
      "inputs": [
        {
          "internalType": "address",
          "name": "user",
          "type": "address"
        }
      ],
      "name": "mint",
      "outputs": [],
      "stateMutability": "nonpayable",
      "type": "function"
    },
    {
      "inputs": [],
      "name": "name",
      "outputs": [
        {
          "internalType": "string",
          "name": "",
          "type": "string"
        }
      ],
      "stateMutability": "view",
      "type": "function"
    },
    {
      "inputs": [],
      "name": "symbol",
      "outputs": [
        {
          "internalType": "string",
          "name": "",
          "type": "string"
        }
      ],
      "stateMutability": "view",
      "type": "function"
    },
    {
      "inputs": [],
      "name": "totalSupply",
      "outputs": [
        {
          "internalType": "uint256",
          "name": "",
          "type": "uint256"
        }
      ],
      "stateMutability": "view",
      "type": "function"
    },
    {
      "inputs": [
        {
          "internalType": "address",
          "name": "to",
          "type": "address"
        },
        {
          "internalType": "uint256",
          "name": "amount",
          "type": "uint256"
        }
      ],
      "name": "transfer",
      "outputs": [
        {
          "internalType": "bool",
          "name": "",
          "type": "bool"
        }
      ],
      "stateMutability": "nonpayable",
      "type": "function"
    },
    {
      "inputs": [
        {
          "internalType": "address",
          "name": "from",
          "type": "address"
        },
        {
          "internalType": "address",
          "name": "to",
          "type": "address"
        },
        {
          "internalType": "uint256",
          "name": "amount",
          "type": "uint256"
        }
      ],
      "name": "transferFrom",
      "outputs": [
        {
          "internalType": "bool",
          "name": "",
          "type": "bool"
        }
      ],
      "stateMutability": "nonpayable",
      "type": "function"
    }
  ],
  "bytecode": "0x60806040523480156200001157600080fd5b506040518060400160405280600681526020017f546f6b656e4100000000000000000000000000000000000000000000000000008152506040518060400160405280600381526020017f544b410000000000000000000000000000000000000000000000000000000000815250816003908051906020019062000096929190620000b8565b508060049080519060200190620000af929190620000b8565b505050620001cd565b828054620000c69062000168565b90600052602060002090601f016020900481019282620000ea576000855562000136565b82601f106200010557805160ff191683800117855562000136565b8280016001018555821562000136579182015b828111156200013557825182559160200191906001019062000118565b5b50905062000145919062000149565b5090565b5b80821115620001645760008160009055506001016200014a565b5090565b600060028204905060018216806200018157607f821691505b602082108114156200019857620001976200019e565b5b50919050565b7f4e487b7100000000000000000000000000000000000000000000000000000000600052602260045260246000fd5b61145580620001dd6000396000f3fe608060405234801561001057600080fd5b50600436106100b45760003560e01c80636a627842116100715780636a627842146101a357806370a08231146101bf57806395d89b41146101ef578063a457c2d71461020d578063a9059cbb1461023d578063dd62ed3e1461026d576100b4565b806306fdde03146100b9578063095ea7b3146100d757806318160ddd1461010757806323b872dd14610125578063313ce567146101555780633950935114610173575b600080fd5b6100c161029d565b6040516100ce9190610ed2565b60405180910390f35b6100f160048036038101906100ec9190610cfd565b61032f565b6040516100fe9190610eb7565b60405180910390f35b61010f610352565b60405161011c9190610ff4565b60405180910390f35b61013f600480360381019061013a9190610cae565b61035c565b60405161014c9190610eb7565b60405180910390f35b61015d61038b565b60405161016a919061100f565b60405180910390f35b61018d60048036038101906101889190610cfd565b610394565b60405161019a9190610eb7565b60405180910390f35b6101bd60048036038101906101b89190610c49565b6103cb565b005b6101d960048036038101906101d49190610c49565b6103da565b6040516101e69190610ff4565b60405180910390f35b6101f7610422565b6040516102049190610ed2565b60405180910390f35b61022760048036038101906102229190610cfd565b6104b4565b6040516102349190610eb7565b60405180910390f35b61025760048036038101906102529190610cfd565b61052b565b6040516102649190610eb7565b60405180910390f35b61028760048036038101906102829190610c72565b61054e565b6040516102949190610ff4565b60405180910390f35b6060600380546102ac90611124565b80601f01602080910402602001604051908101604052809291908181526020018280546102d890611124565b80156103255780601f106102fa57610100808354040283529160200191610325565b820191906000526020600020905b81548152906001019060200180831161030857829003601f168201915b5050505050905090565b60008061033a6105d5565b90506103478185856105dd565b600191505092915050565b6000600254905090565b6000806103676105d5565b90506103748582856107a8565b61037f858585610834565b60019150509392505050565b60006012905090565b60008061039f6105d5565b90506103c08185856103b1858961054e565b6103bb9190611046565b6105dd565b600191505092915050565b6103d7816107d0610ab5565b50565b60008060008373ffffffffffffffffffffffffffffffffffffffff1673ffffffffffffffffffffffffffffffffffffffff168152602001908152602001600020549050919050565b60606004805461043190611124565b80601f016020809104026020016040519081016040528092919081815260200182805461045d90611124565b80156104aa5780601f1061047f576101008083540402835291602001916104aa565b820191906000526020600020905b81548152906001019060200180831161048d57829003601f168201915b5050505050905090565b6000806104bf6105d5565b905060006104cd828661054e565b905083811015610512576040517f08c379a000000000000000000000000000000000000000000000000000000000815260040161050990610fb4565b60405180910390fd5b61051f82868684036105dd565b60019250505092915050565b6000806105366105d5565b9050610543818585610834565b600191505092915050565b6000600160008473ffffffffffffffffffffffffffffffffffffffff1673ffffffffffffffffffffffffffffffffffffffff16815260200190815260200160002060008373ffffffffffffffffffffffffffffffffffffffff1673ffffffffffffffffffffffffffffffffffffffff16815260200190815260200160002054905092915050565b600033905090565b600073ffffffffffffffffffffffffffffffffffffffff168373ffffffffffffffffffffffffffffffffffffffff16141561064d576040517f08c379a000000000000000000000000000000000000000000000000000000000815260040161064490610f94565b60405180910390fd5b600073ffffffffffffffffffffffffffffffffffffffff168273ffffffffffffffffffffffffffffffffffffffff1614156106bd576040517f08c379a00000000000000000000000000000000000000000000000000000000081526004016106b490610f14565b60405180910390fd5b80600160008573ffffffffffffffffffffffffffffffffffffffff1673ffffffffffffffffffffffffffffffffffffffff16815260200190815260200160002060008473ffffffffffffffffffffffffffffffffffffffff1673ffffffffffffffffffffffffffffffffffffffff168152602001908152602001600020819055508173ffffffffffffffffffffffffffffffffffffffff168373ffffffffffffffffffffffffffffffffffffffff167f8c5be1e5ebec7d5bd14f71427d1e84f3dd0314c0f7b2291e5b200ac8c7c3b9258360405161079b9190610ff4565b60405180910390a3505050565b60006107b4848461054e565b90507fffffffffffffffffffffffffffffffffffffffffffffffffffffffffffffffff811461082e5781811015610820576040517f08c379a000000000000000000000000000000000000000000000000000000000815260040161081790610f34565b60405180910390fd5b61082d84848484036105dd565b5b50505050565b600073ffffffffffffffffffffffffffffffffffffffff168373ffffffffffffffffffffffffffffffffffffffff1614156108a4576040517f08c379a000000000000000000000000000000000000000000000000000000000815260040161089b90610f74565b60405180910390fd5b600073ffffffffffffffffffffffffffffffffffffffff168273ffffffffffffffffffffffffffffffffffffffff161415610914576040517f08c379a000000000000000000000000000000000000000000000000000000000815260040161090b90610ef4565b60405180910390fd5b61091f838383610c15565b60008060008573ffffffffffffffffffffffffffffffffffffffff1673ffffffffffffffffffffffffffffffffffffffff168152602001908152602001600020549050818110156109a5576040517f08c379a000000000000000000000000000000000000000000000000000000000815260040161099c90610f54565b60405180910390fd5b8181036000808673ffffffffffffffffffffffffffffffffffffffff1673ffffffffffffffffffffffffffffffffffffffff16815260200190815260200160002081905550816000808573ffffffffffffffffffffffffffffffffffffffff1673ffffffffffffffffffffffffffffffffffffffff1681526020019081526020016000206000828254610a389190611046565b925050819055508273ffffffffffffffffffffffffffffffffffffffff168473ffffffffffffffffffffffffffffffffffffffff167fddf252ad1be2c89b69c2b068fc378daa952ba7f163c4a11628f55a4df523b3ef84604051610a9c9190610ff4565b60405180910390a3610aaf848484610c1a565b50505050565b600073ffffffffffffffffffffffffffffffffffffffff168273ffffffffffffffffffffffffffffffffffffffff161415610b25576040517f08c379a0000000000000000000000000000000000000000000000000000000008152600401610b1c90610fd4565b60405180910390fd5b610b3160008383610c15565b8060026000828254610b439190611046565b92505081905550806000808473ffffffffffffffffffffffffffffffffffffffff1673ffffffffffffffffffffffffffffffffffffffff1681526020019081526020016000206000828254610b989190611046565b925050819055508173ffffffffffffffffffffffffffffffffffffffff16600073ffffffffffffffffffffffffffffffffffffffff167fddf252ad1be2c89b69c2b068fc378daa952ba7f163c4a11628f55a4df523b3ef83604051610bfd9190610ff4565b60405180910390a3610c1160008383610c1a565b5050565b505050565b505050565b600081359050610c2e816113f1565b92915050565b600081359050610c4381611408565b92915050565b600060208284031215610c5b57600080fd5b6000610c6984828501610c1f565b91505092915050565b60008060408385031215610c8557600080fd5b6000610c9385828601610c1f565b9250506020610ca485828601610c1f565b9150509250929050565b600080600060608486031215610cc357600080fd5b6000610cd186828701610c1f565b9350506020610ce286828701610c1f565b9250506040610cf386828701610c34565b9150509250925092565b60008060408385031215610d1057600080fd5b6000610d1e85828601610c1f565b9250506020610d2f85828601610c34565b9150509250929050565b610d42816110ae565b82525050565b6000610d538261102a565b610d5d8185611035565b9350610d6d8185602086016110f1565b610d76816111b4565b840191505092915050565b6000610d8e602383611035565b9150610d99826111c5565b604082019050919050565b6000610db1602283611035565b9150610dbc82611214565b604082019050919050565b6000610dd4601d83611035565b9150610ddf82611263565b602082019050919050565b6000610df7602683611035565b9150610e028261128c565b604082019050919050565b6000610e1a602583611035565b9150610e25826112db565b604082019050919050565b6000610e3d602483611035565b9150610e488261132a565b604082019050919050565b6000610e60602583611035565b9150610e6b82611379565b604082019050919050565b6000610e83601f83611035565b9150610e8e826113c8565b602082019050919050565b610ea2816110da565b82525050565b610eb1816110e4565b82525050565b6000602082019050610ecc6000830184610d39565b92915050565b60006020820190508181036000830152610eec8184610d48565b905092915050565b60006020820190508181036000830152610f0d81610d81565b9050919050565b60006020820190508181036000830152610f2d81610da4565b9050919050565b60006020820190508181036000830152610f4d81610dc7565b9050919050565b60006020820190508181036000830152610f6d81610dea565b9050919050565b60006020820190508181036000830152610f8d81610e0d565b9050919050565b60006020820190508181036000830152610fad81610e30565b9050919050565b60006020820190508181036000830152610fcd81610e53565b9050919050565b60006020820190508181036000830152610fed81610e76565b9050919050565b60006020820190506110096000830184610e99565b92915050565b60006020820190506110246000830184610ea8565b92915050565b600081519050919050565b600082825260208201905092915050565b6000611051826110da565b915061105c836110da565b9250827fffffffffffffffffffffffffffffffffffffffffffffffffffffffffffffffff0382111561109157611090611156565b5b828201905092915050565b60006110a7826110ba565b9050919050565b60008115159050919050565b600073ffffffffffffffffffffffffffffffffffffffff82169050919050565b6000819050919050565b600060ff82169050919050565b60005b8381101561110f5780820151818401526020810190506110f4565b8381111561111e576000848401525b50505050565b6000600282049050600182168061113c57607f821691505b602082108114156111505761114f611185565b5b50919050565b7f4e487b7100000000000000000000000000000000000000000000000000000000600052601160045260246000fd5b7f4e487b7100000000000000000000000000000000000000000000000000000000600052602260045260246000fd5b6000601f19601f8301169050919050565b7f45524332303a207472616e7366657220746f20746865207a65726f206164647260008201527f6573730000000000000000000000000000000000000000000000000000000000602082015250565b7f45524332303a20617070726f766520746f20746865207a65726f20616464726560008201527f7373000000000000000000000000000000000000000000000000000000000000602082015250565b7f45524332303a20696e73756666696369656e7420616c6c6f77616e6365000000600082015250565b7f45524332303a207472616e7366657220616d6f756e742065786365656473206260008201527f616c616e63650000000000000000000000000000000000000000000000000000602082015250565b7f45524332303a207472616e736665722066726f6d20746865207a65726f20616460008201527f6472657373000000000000000000000000000000000000000000000000000000602082015250565b7f45524332303a20617070726f76652066726f6d20746865207a65726f2061646460008201527f7265737300000000000000000000000000000000000000000000000000000000602082015250565b7f45524332303a2064656372656173656420616c6c6f77616e63652062656c6f7760008201527f207a65726f000000000000000000000000000000000000000000000000000000602082015250565b7f45524332303a206d696e7420746f20746865207a65726f206164647265737300600082015250565b6113fa8161109c565b811461140557600080fd5b50565b611411816110da565b811461141c57600080fd5b5056fea2646970667358221220ac48119c74ba6d48cc1c5807fe7a1f6e10d608d1c0dfc51ebb3f31b4bcd1c19364736f6c63430008010033",
  "linkReferences": {},
  "deployedLinkReferences": {}
}